{"abi":[{"type":"constructor","inputs":[{"name":"_rfqEngine","type":"address","internalType":"address"},{"name":"_collateralToken","type":"address","internalType":"address"}],"stateMutability":"nonpayable"},{"type":"function","name":"cancelParlay","inputs":[{"name":"parlayId","type":"bytes32","internalType":"bytes32"}],"outputs":[],"stateMutability":"nonpayable"},{"type":"function","name":"collateralToken","inputs":[],"outputs":[{"name":"","type":"address","internalType":"address"}],"stateMutability":"view"},{"type":"function","name":"fillParlay","inputs":[{"name":"quoteId","type":"bytes32","internalType":"bytes32"}],"outputs":[],"stateMutability":"nonpayable"},{"type":"function","name":"getParlay","inputs":[{"name":"parlayId","type":"bytes32","internalType":"bytes32"}],"outputs":[{"name":"taker","type":"address","internalType":"address"},{"name":"totalSize","type":"uint256","internalType":"uint256"},{"name":"maxTotalCost","type":"uint256","internalType":"uint256"},{"name":"createdAt","type":"uint256","internalType":"uint256"},{"name":"expiresAt","type":"uint256","internalType":"uint256"},{"name":"status","type":"uint8","internalType":"enum ParlayEngine.ParlayStatus"},{"name":"legCount","type":"uint256","internalType":"uint256"}],"stateMutability":"view"},{"type":"function","name":"getParlayLeg","inputs":[{"name":"parlayId","type":"bytes32","internalType":"bytes32"},{"name":"index","type":"uint256","internalType":"uint256"}],"outputs":[{"name":"","type":"tuple","internalType":"struct ParlayEngine.ParlayLeg","components":[{"name":"marketId","type":"bytes32","internalType":"bytes32"},{"name":"isYes","type":"bool","internalType":"bool"},{"name":"size","type":"uint256","internalType":"uint256"}]}],"stateMutability":"view"},{"type":"function","name":"getQuotePrices","inputs":[{"name":"quoteId","type":"bytes32","internalType":"bytes32"}],"outputs":[{"name":"","type":"uint256[]","internalType":"uint256[]"}],"stateMutability":"view"},{"type":"function","name":"parlayQuotes","inputs":[{"name":"","type":"bytes32","internalType":"bytes32"}],"outputs":[{"name":"quoteId","type":"bytes32","internalType":"bytes32"},{"name":"parlayId","type":"bytes32","internalType":"bytes32"},{"name":"maker","type":"address","internalType":"address"},{"name":"totalCost","type":"uint256","internalType":"uint256"},{"name":"createdAt","type":"uint256","internalType":"uint256"},{"name":"expiresAt","type":"uint256","internalType":"uint256"},{"name":"filled","type":"bool","internalType":"bool"}],"stateMutability":"view"},{"type":"function","name":"parlayResponses","inputs":[{"name":"","type":"bytes32","internalType":"bytes32"},{"name":"","type":"uint256","internalType":"uint256"}],"outputs":[{"name":"","type":"bytes32","internalType":"bytes32"}],"stateMutability":"view"},{"type":"function","name":"quoteParlay","inputs":[{"name":"parlayId","type":"bytes32","internalType":"bytes32"},{"name":"legPrices","type":"uint256[]","internalType":"uint256[]"},{"name":"duration","type":"uint256","internalType":"uint256"}],"outputs":[{"name":"","type":"bytes32","internalType":"bytes32"}],"stateMutability":"nonpayable"},{"type":"function","name":"requestParlay","inputs":[{"name":"legs","type":"tuple[]","internalType":"struct ParlayEngine.ParlayLeg[]","components":[{"name":"marketId","type":"bytes32","internalType":"bytes32"},{"name":"isYes","type":"bool","internalType":"bool"},{"name":"size","type":"uint256","internalType":"uint256"}]},{"name":"maxTotalCost","type":"uint256","internalType":"uint256"},{"name":"duration","type":"uint256","internalType":"uint256"}],"outputs":[{"name":"","type":"bytes32","internalType":"bytes32"}],"stateMutability":"nonpayable"},{"type":"function","name":"rfqEngine","inputs":[],"outputs":[{"name":"","type":"address","internalType":"contract RFQEngine"}],"stateMutability":"view"},{"type":"function","name":"totalParlayCount","inputs":[],"outputs":[{"name":"","type":"uint256","internalType":"uint256"}],"stateMutability":"view"},{"type":"function","name":"totalParlayFilled","inputs":[],"outputs":[{"name":"","type":"uint256","internalType":"uint256"}],"stateMutability":"view"},{"type":"event","name":"ParlayCancelled","inputs":[{"name":"parlayId","type":"bytes32","indexed":true,"internalType":"bytes32"}],"anonymous":false},{"type":"event","name":"ParlayFilled","inputs":[{"name":"quoteId","type":"bytes32","indexed":true,"internalType":"bytes32"},{"name":"parlayId","type":"bytes32","indexed":true,"internalType":"bytes32"},{"name":"taker","type":"address","indexed":false,"internalType":"address"},{"name":"maker","type":"address","indexed":false,"internalType":"address"}],"anonymous":false},{"type":"event","name":"ParlayQuoted","inputs":[{"name":"quoteId","type":"bytes32","indexed":true,"internalType":"bytes32"},{"name":"parlayId","type":"bytes32","indexed":true,"internalType":"bytes32"},{"name":"maker","type":"address","indexed":true,"internalType":"address"},{"name":"totalCost","type":"uint256","indexed":false,"internalType":"uint256"}],"anonymous":false},{"type":"event","name":"ParlayRequested","inputs":[{"name":"parlayId","type":"bytes32","indexed":true,"internalType":"bytes32"},{"name":"taker","type":"address","indexed":true,"internalType":"address"},{"name":"legCount","type":"uint256","indexed":false,"internalType":"uint256"},{"name":"totalSize","type":"uint256","indexed":false,"internalType":"uint256"}],"anonymous":false}],"bytecode":{"object":"0x60c0346100a757601f6118a238819003918201601f19168301916001600160401b038311848410176100ab5780849260409485528339810103126100a757610052602061004b836100bf565b92016100bf565b6001600160a01b0390911660805260a0526040516117ce90816100d48239608051818181610afb01528181610f2b0152818161103a01526110f8015260a051818181610b3f01528181610fb101526110b40152f35b5f80fd5b634e487b7160e01b5f52604160045260245ffd5b51906001600160a01b03821682036100a75756fe60806040526004361015610011575f80fd5b5f3560e01c80630778b00b146115815780630bd0a38814610e7557806310da489f14610dd5578063569c50e314610d5d5780637966027714610c78578063a0d481c014610bf1578063a5d9f3cb14610b6e578063b2016bd414610b2a578063bdc4e00614610ae6578063ca95b84c14610ac9578063cec81191146105d0578063cf5652b0146105b35763ed9ff642146100a8575f80fd5b346104755760603660031901126104755767ffffffffffffffff600435818111610475573660238201121561047557818160040135116104755760248101903660246060836004013502830101116104755760243591604492833594600284600401351061057657600c84600401351161054257811561050b57851515806104fe575b156104c7575f549061013c8261176a565b5f556040519060208201923360601b84528660040135603484015242605484015260748301526074825260a0820190828210908211176103aa57604052519020935f928391905b856004013583106103be575050506101aa604051956101a187611688565b5f87524261175d565b94604051956101b88761166b565b85875260208701923384526040880192835284606089015260808801524260a088015260c08701525f60e0870152845f52600160205260405f209186518355600183019060018060a01b039051166bffffffffffffffffffffffff60a01b82541617905551805190600160401b82116103aa576002830154826002850155808310610342575b50602001600283015f5260205f205f915b8383106103035750505050600760e091606087015160038201556080870151600482015560a0870151600582015560c08701516006820155019401519360048510156102ef5760209460ff801983541691161790556102af60065461176a565b6006556040519160040135825283820152817fb956ca3d542d30d57b0306a5555c357b61b63ffc2a1639291fce3c604c92b19960403393a3604051908152f35b634e487b7160e01b5f52602160045260245ffd5b60036020826040600194518051875561032f8482015115158789019060ff801983541691151516179055565b015160028601550192019201919061024f565b600381810204810361039657600383810204830361039657600284015f5260205f208360030281015b826003028201811061037e57505061023e565b805f600392555f60018201555f60028201550161036b565b634e487b7160e01b5f52601160045260245ffd5b634e487b7160e01b5f52604160045260245ffd5b90919360406103d286886004013585611788565b01351561048c57865f52600260205260405f20906103f586886004013585611788565b908254600160401b8110156103aa57610415906001948582018155611724565b6104795782358155602083013593841515850361047557604061046c9461044e60019760029486019060ff801983541691151516179055565b01359101556040610464888a6004013587611788565b01359061175d565b94019190610183565b5f80fd5b634e487b7160e01b5f525f60045260245ffd5b60405162461bcd60e51b815260206004820152601460248201527304c65672073697a65206d757374206265203e20360641b81850152606490fd5b60405162461bcd60e51b815260206004820152601060248201526f24b73b30b634b210323ab930ba34b7b760811b81870152606490fd5b506201518086111561012b565b60405162461bcd60e51b815260206004820152601060248201526f125b9d985b1a59081b585e0818dbdcdd60821b81870152606490fd5b60405162461bcd60e51b815260206004820152600d60248201526c546f6f206d616e79206c65677360981b81870152606490fd5b60405162461bcd60e51b81526020600482015260166024820152755061726c6179206e65656473203e3d2032206c65677360501b81870152606490fd5b34610475575f366003190112610475576020600654604051908152f35b346104755760603660031901126104755767ffffffffffffffff6024358181116104755736602382011215610475578181600401351161047557366024826004013560051b83010111610475576044906004355f52600160205260405f2092600584015415610a8d5760ff60078501541660048110156102ef5761065490156115fd565b6006840154421015610a58576004355f52600293600260205260405f20948554846004013503610a1d57945f955f915b856004013583106109535750505060040154841161091c575f546106a78161176a565b5f5560405160208101913360601b8352600435603483015286605483015242607483015260948201526094815260c0810191818310848411176103aa576107039183604052519020946106f983611688565b5f8352354261175d565b91604051916107118361166b565b858352602083019360043585526040840190338252606085019283528860808601524260a086015260c08501525f60e0850152865f52600360205260405f209484518655516001860155600285019060018060a01b039051166bffffffffffffffffffffffff60a01b8254161790555180519182116103aa57600160401b82116103aa5760038401548260038601558083106108f2575b50602001600384015f5260205f205f5b8381106108de575050505090600760e0836080610801950151600485015560a0810151600585015560c081015160068501550151151591019060ff801983541691151516179055565b5f5b816004013581106108945750506004355f52600560205260405f2091825492600160401b8410156103aa5761085a61084485859360016020980181556115d4565b819391549060031b91821b915f19901b19161790565b90556040519081523390827ff303d72d6eab7241cd173e50466d27136fcbfc226132db19fa7bd7fbc96862278560043593a4604051908152f35b825f52600460205260405f20906108b381846004013560248601611778565b358254600160401b8110156103aa5761084481600195866108d6940181556115d4565b905501610803565b6001906020845194019381840155016107b8565b600385015f5260205f20908382015b81830181106109115750506107a8565b5f8155600101610901565b60405162461bcd60e51b815260206004820152601060248201526f086dee6e840caf0c6cacac8e640dac2f60831b81850152606490fd5b90919661096888876004013560248901611778565b351515806109f9575b156109c1576109b8600191670de0b6b3a76400006109b18b876109a86109a0838e602481600401359101611778565b359289611724565b5001549061173d565b049061175d565b97019190610684565b60405162461bcd60e51b8152602060048201526011602482015270496e76616c6964206c656720707269636560781b81890152606490fd5b50670de0b6b3a7640000610a1589886004013560248a01611778565b351115610971565b60405162461bcd60e51b81526020600482015260146024820152730a0e4d2c6ca40c6deeadce840dad2e6dac2e8c6d60631b81870152606490fd5b60405162461bcd60e51b815260206004820152600e60248201526d14185c9b185e48195e1c1a5c995960921b81850152606490fd5b60405162461bcd60e51b815260206004820152601560248201527414185c9b185e48191bd95cc81b9bdd08195e1a5cdd605a1b81850152606490fd5b34610475575f366003190112610475576020600754604051908152f35b34610475575f366003190112610475576040517f00000000000000000000000000000000000000000000000000000000000000006001600160a01b03168152602090f35b34610475575f366003190112610475576040517f00000000000000000000000000000000000000000000000000000000000000006001600160a01b03168152602090f35b34610475576060610bab610b81366115be565b905f60408051610b908161164f565b82815282602082015201525f52600260205260405f20611724565b50604051610bb88161164f565b8154918282526040600260ff60018401541692602085019315158452015492019182526040519283525115156020830152516040820152f35b34610475576020366003190112610475576004355f52600160205260405f2060018060a01b036001820154166003820154600483015492600581015460ff600760068401549301541694600260205260405f205493604051958652602086015260408501526060840152608083015260048310156102ef5760e09260a083015260c0820152f35b3461047557602036600319011261047557600435805f52600160205260405f2060018060a01b036001820154163303610d2057600701805460ff811660048110156102ef57610cf05760ff191660031790557f3fe7cf238f5fba414d0ba3518acde8cc3c292792db51238c56d8a06708d331205f80a2005b60405162461bcd60e51b81526020600482015260086024820152672737ba1037b832b760c11b6044820152606490fd5b60405162461bcd60e51b815260206004820152601560248201527413db9b1e481d185ad95c8818d85b8818d85b98d95b605a1b6044820152606490fd5b34610475576020366003190112610475576004355f52600360205260e060405f2080549060018101549060018060a01b03600282015416600482015460058301549160ff600760068601549501541694604051968752602087015260408601526060850152608084015260a0830152151560c0820152f35b3461047557602080600319360112610475576004355f526004815260405f20604051908183825491828152019081925f52845f20905f5b86828210610e61578686610e22828803836116a4565b60405192839281840190828552518091526040840192915f5b828110610e4a57505050500390f35b835185528695509381019392810192600101610e3b565b835485529093019260019283019201610e0c565b34610475576020366003190112610475576004355f52600360205260405f20600581015415611545576007810190815460ff811661150f5760068201544210156114da5760018201545f52600160205260405f2092600784019160ff83541660048110156102ef57610ee790156115fd565b60018501546001600160a01b0316330361149f57600160ff199182168117909255825416179055604051636f788a5b60e11b81526020816004816001600160a01b037f0000000000000000000000000000000000000000000000000000000000000000165afa9081156112e7575f9182918291611480575b5060048401546040516323b872dd60e01b602082019081523360248301526001600160a01b0390931660448201526064810191909152610fac81608481015b03601f1981018352826116a4565b5190827f00000000000000000000000000000000000000000000000000000000000000005af1610fda6116e5565b50156114435760018101545f52600260205260405f20906004355f52600460205260405f20915f8082545b8082106113f45750506002830154604051636f788a5b60e11b81526001600160a01b03918216929091602090839060049082907f0000000000000000000000000000000000000000000000000000000000000000165afa9081156112e7575f93849384936113cf575b506040516323b872dd60e01b602082019081526001600160a01b03928316602483015293909116604482015260648101919091526110af8160848101610f9e565b5190827f00000000000000000000000000000000000000000000000000000000000000005af16110dd6116e5565b501561139257604051636f788a5b60e11b81526020816004817f00000000000000000000000000000000000000000000000000000000000000006001600160a01b03165afa9081156112e7575f91611363575b505f5b825481101561130157670de0b6b3a764000061116561115283886115d4565b90549060031b1c60026109a88588611724565b049061117f8260026111778488611724565b500154611750565b9161118a8286611724565b50549060018060a01b0360018a01541660ff60016111a8868a611724565b500154169260026111b9868a611724565b5001546001600160a01b0388163b1561047557604051630cb2654960e01b815260048101929092526001600160a01b0390921660248201529215156044840152606483015260848201525f818060a481010381836001600160a01b0389165af180156112e7576112f2575b5061122f8185611724565b505460028601549092906001600160a01b031660ff60016112508589611724565b50015416159360026112628589611724565b5001546001600160a01b0387163b1561047557604051630cb2654960e01b815260048101929092526001600160a01b0390921660248201529315156044850152606484015260848301525f828060a481010381836001600160a01b0388165af19182156112e7576001926112d8575b5001611133565b6112e19061163b565b876112d1565b6040513d5f823e3d90fd5b6112fb9061163b565b87611224565b858461130e60075461176a565b600755600181810154920154600290910154604080516001600160a01b039384168152919092166020820152600435917f5ce889f337f7052c510d52058a9e96f6499607ac09c6166fbdea943eca01f48f91a3005b611385915060203d60201161138b575b61137d81836116a4565b8101906116c6565b85611130565b503d611373565b60405162461bcd60e51b815260206004820152601560248201527413585ad95c881d1c985b9cd9995c8819985a5b1959605a1b6044820152606490fd5b6110af9193506113ed9060203d60201161138b5761137d81836116a4565b929061106e565b909161143b600191611435670de0b6b3a7640000611428611415888c6115d4565b90549060031b1c60026109a88a8c611724565b046002611177888a611724565b9061175d565b920190611005565b60405162461bcd60e51b815260206004820152601560248201527415185ad95c881d1c985b9cd9995c8819985a5b1959605a1b6044820152606490fd5b611499915060203d60201161138b5761137d81836116a4565b85610f5f565b60405162461bcd60e51b815260206004820152601360248201527213db9b1e481d185ad95c8818d85b88199a5b1b606a1b6044820152606490fd5b60405162461bcd60e51b815260206004820152600d60248201526c145d5bdd1948195e1c1a5c9959609a1b6044820152606490fd5b60405162461bcd60e51b815260206004820152600e60248201526d105b1c9958591e48199a5b1b195960921b6044820152606490fd5b60405162461bcd60e51b8152602060048201526014602482015273145d5bdd1948191bd95cc81b9bdd08195e1a5cdd60621b6044820152606490fd5b346104755761158f366115be565b905f52600560205260405f208054821015610475576020916115b0916115d4565b90546040519160031b1c8152f35b6040906003190112610475576004359060243590565b80548210156115e9575f5260205f2001905f90565b634e487b7160e01b5f52603260045260245ffd5b1561160457565b60405162461bcd60e51b815260206004820152600f60248201526e2830b93630bc903737ba1037b832b760891b6044820152606490fd5b67ffffffffffffffff81116103aa57604052565b6060810190811067ffffffffffffffff8211176103aa57604052565b610100810190811067ffffffffffffffff8211176103aa57604052565b6020810190811067ffffffffffffffff8211176103aa57604052565b90601f8019910116810190811067ffffffffffffffff8211176103aa57604052565b9081602091031261047557516001600160a01b03811681036104755790565b3d1561171f573d9067ffffffffffffffff82116103aa5760405191611714601f8201601f1916602001846116a4565b82523d5f602084013e565b606090565b80548210156115e9575f52600360205f20910201905f90565b8181029291811591840414171561039657565b9190820391821161039657565b9190820180921161039657565b5f1981146103965760010190565b91908110156115e95760051b0190565b91908110156115e957606002019056fea26469706673582212208e122f6e358f8505b525a2a0960c602d41a62c881f606212ea9a91ac7a131c7964736f6c63430008180033","linkReferences":{}},"methodIdentifiers":{"cancelParlay(bytes32)":"79660277","collateralToken()":"b2016bd4","fillParlay(bytes32)":"0bd0a388","getParlay(bytes32)":"a0d481c0","getParlayLeg(bytes32,uint256)":"a5d9f3cb","getQuotePrices(bytes32)":"10da489f","parlayQuotes(bytes32)":"569c50e3","parlayResponses(bytes32,uint256)":"0778b00b","quoteParlay(bytes32,uint256[],uint256)":"cec81191","requestParlay((bytes32,bool,uint256)[],uint256,uint256)":"ed9ff642","rfqEngine()":"bdc4e006","totalParlayCount()":"cf5652b0","totalParlayFilled()":"ca95b84c"},"id":16}