{"abi":[{"type":"constructor","inputs":[{"name":"_collateralToken","type":"address","internalType":"address"},{"name":"_protocolFeeBps","type":"uint256","internalType":"uint256"}],"stateMutability":"nonpayable"},{"type":"function","name":"accumulatedFees","inputs":[],"outputs":[{"name":"","type":"uint256","internalType":"uint256"}],"stateMutability":"view"},{"type":"function","name":"cancelMarket","inputs":[{"name":"marketId","type":"bytes32","internalType":"bytes32"}],"outputs":[],"stateMutability":"nonpayable"},{"type":"function","name":"collateralToken","inputs":[],"outputs":[{"name":"","type":"address","internalType":"address"}],"stateMutability":"view"},{"type":"function","name":"createMarket","inputs":[{"name":"question","type":"string","internalType":"string"},{"name":"expiresAt","type":"uint256","internalType":"uint256"},{"name":"oracle","type":"address","internalType":"address"}],"outputs":[{"name":"","type":"bytes32","internalType":"bytes32"}],"stateMutability":"nonpayable"},{"type":"function","name":"getMarket","inputs":[{"name":"marketId","type":"bytes32","internalType":"bytes32"}],"outputs":[{"name":"","type":"tuple","internalType":"struct IPredictionMarket.Market","components":[{"name":"marketId","type":"bytes32","internalType":"bytes32"},{"name":"question","type":"string","internalType":"string"},{"name":"createdAt","type":"uint256","internalType":"uint256"},{"name":"expiresAt","type":"uint256","internalType":"uint256"},{"name":"status","type":"uint8","internalType":"enum IPredictionMarket.MarketStatus"},{"name":"outcome","type":"uint8","internalType":"enum IPredictionMarket.Outcome"},{"name":"oracle","type":"address","internalType":"address"},{"name":"totalYesShares","type":"uint256","internalType":"uint256"},{"name":"totalNoShares","type":"uint256","internalType":"uint256"},{"name":"totalVolume","type":"uint256","internalType":"uint256"}]}],"stateMutability":"view"},{"type":"function","name":"getParlayMarketIds","inputs":[{"name":"parlayPositionId","type":"bytes32","internalType":"bytes32"}],"outputs":[{"name":"","type":"bytes32[]","internalType":"bytes32[]"}],"stateMutability":"view"},{"type":"function","name":"getParlayShareAmounts","inputs":[{"name":"parlayPositionId","type":"bytes32","internalType":"bytes32"}],"outputs":[{"name":"","type":"uint256[]","internalType":"uint256[]"}],"stateMutability":"view"},{"type":"function","name":"getShares","inputs":[{"name":"marketId","type":"bytes32","internalType":"bytes32"},{"name":"user","type":"address","internalType":"address"}],"outputs":[{"name":"yes","type":"uint256","internalType":"uint256"},{"name":"no","type":"uint256","internalType":"uint256"}],"stateMutability":"view"},{"type":"function","name":"markets","inputs":[{"name":"","type":"bytes32","internalType":"bytes32"}],"outputs":[{"name":"marketId","type":"bytes32","internalType":"bytes32"},{"name":"question","type":"string","internalType":"string"},{"name":"createdAt","type":"uint256","internalType":"uint256"},{"name":"expiresAt","type":"uint256","internalType":"uint256"},{"name":"status","type":"uint8","internalType":"enum IPredictionMarket.MarketStatus"},{"name":"outcome","type":"uint8","internalType":"enum IPredictionMarket.Outcome"},{"name":"oracle","type":"address","internalType":"address"},{"name":"totalYesShares","type":"uint256","internalType":"uint256"},{"name":"totalNoShares","type":"uint256","internalType":"uint256"},{"name":"totalVolume","type":"uint256","internalType":"uint256"}],"stateMutability":"view"},{"type":"function","name":"mintParlayShares","inputs":[{"name":"marketIds","type":"bytes32[]","internalType":"bytes32[]"},{"name":"recipient","type":"address","internalType":"address"},{"name":"shares","type":"uint256[]","internalType":"uint256[]"},{"name":"costs","type":"uint256[]","internalType":"uint256[]"}],"outputs":[{"name":"","type":"bytes32","internalType":"bytes32"}],"stateMutability":"nonpayable"},{"type":"function","name":"mintShares","inputs":[{"name":"marketId","type":"bytes32","internalType":"bytes32"},{"name":"recipient","type":"address","internalType":"address"},{"name":"isYes","type":"bool","internalType":"bool"},{"name":"shares","type":"uint256","internalType":"uint256"},{"name":"cost","type":"uint256","internalType":"uint256"}],"outputs":[],"stateMutability":"nonpayable"},{"type":"function","name":"noShares","inputs":[{"name":"","type":"bytes32","internalType":"bytes32"},{"name":"","type":"address","internalType":"address"}],"outputs":[{"name":"","type":"uint256","internalType":"uint256"}],"stateMutability":"view"},{"type":"function","name":"owner","inputs":[],"outputs":[{"name":"","type":"address","internalType":"address"}],"stateMutability":"view"},{"type":"function","name":"parlayPositions","inputs":[{"name":"","type":"bytes32","internalType":"bytes32"}],"outputs":[{"name":"holder","type":"address","internalType":"address"},{"name":"totalCost","type":"uint256","internalType":"uint256"},{"name":"legCount","type":"uint256","internalType":"uint256"},{"name":"redeemed","type":"bool","internalType":"bool"}],"stateMutability":"view"},{"type":"function","name":"protocolFeeBps","inputs":[],"outputs":[{"name":"","type":"uint256","internalType":"uint256"}],"stateMutability":"view"},{"type":"function","name":"redeemParlayShares","inputs":[{"name":"parlayPositionId","type":"bytes32","internalType":"bytes32"}],"outputs":[],"stateMutability":"nonpayable"},{"type":"function","name":"redeemShares","inputs":[{"name":"marketId","type":"bytes32","internalType":"bytes32"}],"outputs":[],"stateMutability":"nonpayable"},{"type":"function","name":"refundShares","inputs":[{"name":"marketId","type":"bytes32","internalType":"bytes32"}],"outputs":[],"stateMutability":"nonpayable"},{"type":"function","name":"resolveMarket","inputs":[{"name":"marketId","type":"bytes32","internalType":"bytes32"},{"name":"outcome","type":"uint8","internalType":"enum IPredictionMarket.Outcome"}],"outputs":[],"stateMutability":"nonpayable"},{"type":"function","name":"setProtocolFee","inputs":[{"name":"_feeBps","type":"uint256","internalType":"uint256"}],"outputs":[],"stateMutability":"nonpayable"},{"type":"function","name":"transferOwnership","inputs":[{"name":"newOwner","type":"address","internalType":"address"}],"outputs":[],"stateMutability":"nonpayable"},{"type":"function","name":"withdrawFees","inputs":[{"name":"to","type":"address","internalType":"address"}],"outputs":[],"stateMutability":"nonpayable"},{"type":"function","name":"yesShares","inputs":[{"name":"","type":"bytes32","internalType":"bytes32"},{"name":"","type":"address","internalType":"address"}],"outputs":[{"name":"","type":"uint256","internalType":"uint256"}],"stateMutability":"view"},{"type":"event","name":"MarketCancelled","inputs":[{"name":"marketId","type":"bytes32","indexed":true,"internalType":"bytes32"}],"anonymous":false},{"type":"event","name":"MarketCreated","inputs":[{"name":"marketId","type":"bytes32","indexed":true,"internalType":"bytes32"},{"name":"question","type":"string","indexed":false,"internalType":"string"},{"name":"expiresAt","type":"uint256","indexed":false,"internalType":"uint256"},{"name":"oracle","type":"address","indexed":false,"internalType":"address"}],"anonymous":false},{"type":"event","name":"MarketResolved","inputs":[{"name":"marketId","type":"bytes32","indexed":true,"internalType":"bytes32"},{"name":"outcome","type":"uint8","indexed":false,"internalType":"enum IPredictionMarket.Outcome"}],"anonymous":false},{"type":"event","name":"ParlaySharesMinted","inputs":[{"name":"parlayPositionId","type":"bytes32","indexed":true,"internalType":"bytes32"},{"name":"recipient","type":"address","indexed":true,"internalType":"address"},{"name":"legCount","type":"uint256","indexed":false,"internalType":"uint256"},{"name":"totalCost","type":"uint256","indexed":false,"internalType":"uint256"}],"anonymous":false},{"type":"event","name":"ParlaySharesRedeemed","inputs":[{"name":"parlayPositionId","type":"bytes32","indexed":true,"internalType":"bytes32"},{"name":"holder","type":"address","indexed":true,"internalType":"address"},{"name":"payout","type":"uint256","indexed":false,"internalType":"uint256"}],"anonymous":false},{"type":"event","name":"SharesPurchased","inputs":[{"name":"marketId","type":"bytes32","indexed":true,"internalType":"bytes32"},{"name":"buyer","type":"address","indexed":true,"internalType":"address"},{"name":"isYes","type":"bool","indexed":false,"internalType":"bool"},{"name":"amount","type":"uint256","indexed":false,"internalType":"uint256"},{"name":"cost","type":"uint256","indexed":false,"internalType":"uint256"}],"anonymous":false},{"type":"event","name":"SharesRedeemed","inputs":[{"name":"marketId","type":"bytes32","indexed":true,"internalType":"bytes32"},{"name":"redeemer","type":"address","indexed":true,"internalType":"address"},{"name":"shares","type":"uint256","indexed":false,"internalType":"uint256"},{"name":"payout","type":"uint256","indexed":false,"internalType":"uint256"}],"anonymous":false}],"bytecode":{"object":"0x60a03461008d57601f611fa238819003918201601f19168301916001600160401b0383118484101761009157808492604094855283398101031261008d578051906001600160a01b038216820361008d57602001516080919091526001555f80546001600160a01b03191633179055604051611efc90816100a682396080518181816107870152610c290152f35b5f80fd5b634e487b7160e01b5f52604160045260245ffdfe60806040526004361015610011575f80fd5b5f3560e01c80630cb26549146118f4578063164e68de146118835780632eefd633146117e357806335659fb8146117c657806349589fd614611782578063576cf9d014611360578063587f5ed7146113435780635e382837146112045780635ebb58fb146111a657806362271ab314610ea35780637564912b14610de2578063787dce3d14610d785780638da5cb5b14610d51578063954ff69414610cb1578063996ef7c314610c58578063b2016bd414610c14578063b50c15ef14610aa5578063bdb83289146109c1578063c3c95c7b1461082c578063c8e2d1d21461068b578063cca22d76146101dc578063ceb83966146101985763f2fde38b14610116575f80fd5b346101945760203660031901126101945761012f611a63565b5f54906001600160a01b03906101483383851614611cfd565b1690811561015f576001600160a01b031916175f55005b60405162461bcd60e51b815260206004820152600d60248201526c24b73b30b634b21037bbb732b960991b6044820152606490fd5b5f80fd5b34610194576040366003190112610194576101b1611a4d565b6004355f52600660205260405f209060018060a01b03165f52602052602060405f2054604051908152f35b346101945760803660031901126101945767ffffffffffffffff6004358181116101945761020e903690600401611bea565b610219929192611a4d565b60443583811161019457610231903690600401611bea565b906064358581116101945761024a903690600401611bea565b60028694929410610655578186148061064c575b1561060f57925f935f915b87831061045b57505050600a549161028083611dbe565b600a5560405197602098898101946001600160601b03198860601b16865288603483015242605483015260748201526074815260a08101948186108a87111761044757856040528151902098610120820190868210908211176104475760038a9897968c92604097969594975260018060a01b03891681528a600761010060c08a01998b8b5260e0810193845201945f86528c5f525260405f209160018060a01b039051166001600160601b0360a01b835416178255600197516001830155516002820155019051151560ff801983541691161790555f5b8881106103a45750505050507f9c01bfc4979417c0390f2e816c5cfbaf0cf82c27fdfd21b112edeb359879f5469160409182519586528786015260018060a01b031693a3604051908152f35b909192939495965f5260088a5260405f20906103c1818a85611eb6565b35825468010000000000000000938482101561044757816103e9918a6103ff94018155611deb565b819391549060031b91821b915f19901b19161790565b9055895f5260098b5260405f2091610418828787611eb6565b3590835490811015610447576103e98189958661043794018155611deb565b9055019088969594939291610358565b634e487b7160e01b5f52604160045260245ffd5b90919461046986898c611eb6565b355f52600460205260405f2061048460028201541515611c1b565b60ff60048201541660048110156105fb5761049f9015611c5f565b6104ae60038201544210611c9f565b6104b9878688611eb6565b35156105c157600191610555918c6104de8a8d6104d7828c8e611eb6565b3593611eb6565b355f526005908160205260405f20868060a01b038d165f5260205261050860405f20918254611cdc565b90556105246105188b8a8c611eb6565b35918301918254611cdc565b905561054160076105368b8989611eb6565b359201918254611cdc565b905561054e888686611eb6565b3590611cdc565b95610561818a8d611eb6565b3561056d828789611eb6565b359061057a838787611eb6565b3560405192858452602084015260408301527f0e796a03bae1100e2202fb705a842d38ad33db974ecd6ef87896b67234111ae36060858060a01b038c1693a3019190610269565b60405162461bcd60e51b81526020600482015260126024820152710536861726573206d757374206265203e20360741b6044820152606490fd5b634e487b7160e01b5f52602160045260245ffd5b60405162461bcd60e51b8152602060048201526015602482015274082e4e4c2f240d8cadccee8d040dad2e6dac2e8c6d605b1b6044820152606490fd5b5080861461025e565b60405162461bcd60e51b815260206004820152600e60248201526d4e656564203e3d2032206c65677360901b6044820152606490fd5b34610194576020806003193601126101945760043590815f52600481526106ba600260405f2001541515611c1b565b815f526004815260ff600460405f2001541660048110156105fb576003036107f157815f526005815260405f20335f52815261070f60405f2054835f526006835260405f20335f52835260405f205490611cdc565b9182156107b8575f818152600583526040808220338084529085528183208390559282526006845280822083835284528082208290555163a9059cbb60e01b938101938452602481019290925260448201939093526107b69291829161078281606481015b03601f198101835282611ace565b5190827f00000000000000000000000000000000000000000000000000000000000000005af16107b0611d51565b50611d80565b005b60405162461bcd60e51b8152600481018390526011602482015270139bdd1a1a5b99c81d1bc81c99599d5b99607a1b6044820152606490fd5b6064906040519062461bcd60e51b82526004820152601460248201527313585c9ad95d081b9bdd0818d85b98d95b1b195960621b6044820152fd5b34610194576020366003190112610194575f61012060405161084d81611ab1565b828152606060208201528260408201528260608201528260808201528260a08201528260c08201528260e08201528261010082015201526004355f52600460205260405f206040519061089f82611ab1565b805482526108af60018201611af0565b6020830152600281015460408301526003810154606083015260048101549060ff821660048110156105fb57608084015260ff8260081c169160038310156105fb5760079260a085015260018060a01b039060101c1660c0840152600581015460e08401526006810154610100840152015461012082015260405180916020825280516020830152602081015161012061095761014092836040870152610160860190611b92565b92604081015160608601526060810151608086015261097e608082015160a0870190611bd0565b61099060a082015160c0870190611bdd565b60018060a01b0360c08201511660e086015260e0810151610100860152610100810151828601520151908301520390f35b3461019457602036600319011261019457600435805f5260046020526109ef600260405f2001541515611c1b565b805f526004602052600460405f2001805460018060a01b03808260101c163314908115610a98575b5015610a645760ff81169060048210156105fb57610a3760039215611c5f565b60ff19161790557f22ad0fb1e02d1db96e8800dac4e4b23821afaf9e1ca54d2093e7bc7fb8732b5a5f80a2005b60405162461bcd60e51b815260206004820152600c60248201526b155b985d5d1a1bdc9a5e995960a21b6044820152606490fd5b90505f5416331484610a17565b346101945760208060031936011261019457600435805f5260048252610ad3600260405f2001541515611c1b565b805f5260048252600460405f20015460ff81169060048210156105fb57610afe600260ff9314611e14565b60081c1660038110156105fb57600103610bd857805f526005825260405f20335f52825260405f205491610b33831515611e76565b815f526005815260405f20335f5281525f60408120555b612710610b5960015485611e63565b0490610b71610b688386611e56565b92600254611cdc565b60025560405163a9059cbb60e01b82820190815233602483015260448201849052610ba7915f9182916107828160648101610774565b6040519384528301527f4181cc604a907312473fbeda41b6161bbecaf2276a11a9065d3953c47d94f36360403393a3005b805f526006825260405f20335f52825260405f205491610bf9831515611e76565b815f526006815260405f20335f5281525f6040812055610b4a565b34610194575f366003190112610194576040517f00000000000000000000000000000000000000000000000000000000000000006001600160a01b03168152602090f35b34610194576020366003190112610194576004355f526007602052608060405f2060018060a01b038154169060018101549060ff6003600283015492015416916040519384526020840152604083015215156060820152f35b3461019457602080600319360112610194576004355f526008815260405f20604051908183825491828152019081925f52845f20905f5b86828210610d3d578686610cfe82880383611ace565b60405192839281840190828552518091526040840192915f5b828110610d2657505050500390f35b835185528695509381019392810192600101610d17565b835485529093019260019283019201610ce8565b34610194575f366003190112610194575f546040516001600160a01b039091168152602090f35b3461019457602036600319011261019457600435610da060018060a01b035f54163314611cfd565b6103e88111610dae57600155005b60405162461bcd60e51b815260206004820152600c60248201526b08ccaca40e8dede40d0d2ced60a31b6044820152606490fd5b34610194576020366003190112610194576004355f52600460205260405f208054610e0f60018301611af0565b9160028101549060038101549060048101546005820154906007600684015493015493610e4f604051988998610140908a528060208b0152890190611b92565b9560408801526060870152610e6a6080870160ff8316611bd0565b610e7d60a0870160ff8360081c16611bdd565b60101c6001600160a01b031660c086015260e08501526101008401526101208301520390f35b3461019457602080600319360112610194576004355f818152600783526040902080546001600160a01b031680156111615733036111265760038091019160ff808454166110ee57815f52600880865260405f20916009875260405f20915f945f955b855487101561105857610f198787611deb565b905490891b1c5f5260048a52600460405f2001548481169060048210156105fb57610f476002879314611e14565b841c16888110156105fb5760010361101357610f638786611deb565b905490891b1c90610f748888611deb565b9054908a1b1c5f526005808c5260405f20335f528c528260405f205410610fd85791610fd091600193610fa78b8b611deb565b9054908d1b1c5f528d5260405f20335f528d5260405f20610fc9838254611e56565b9055611cdc565b960195610f06565b60405162461bcd60e51b8152600481018d90526013602482015272496e73756666696369656e742073686172657360681b6044820152606490fd5b60405162461bcd60e51b8152600481018b9052601760248201527f4c656720646964206e6f74207265736f6c7665205965730000000000000000006044820152606490fd5b907f0c07848377fced9ce73c7fd1dd05a27f7cb223d720501a845dd2b825ee455f018a8a600160ff198254161790556110ad6110a461271061109c60015488611e63565b048096611e56565b94600254611cdc565b60025560405163a9059cbb60e01b828201908152336024830152604482018690526110e3915f9182916107828160648101610774565b6040519384523393a3005b60405162461bcd60e51b815260048101869052601060248201526f105b1c9958591e481c995919595b595960821b6044820152606490fd5b60405162461bcd60e51b81526004810184905260136024820152722737ba103837b9b4ba34b7b7103437b63232b960691b6044820152606490fd5b60405162461bcd60e51b815260048101859052601760248201527f506f736974696f6e20646f6573206e6f742065786973740000000000000000006044820152606490fd5b346101945760403660031901126101945760406004356111c4611a4d565b815f526005602052825f209060018060a01b031690815f52602052825f2054915f526006602052825f20905f52602052815f205482519182526020820152f35b3461019457604036600319011261019457600435602435600381101561019457815f52600460205261123e600260405f2001541515611c1b565b815f526004602052600460405f20019081549060018060a01b038260101c1633036112fe5760ff821660048110156105fb5761127a9015611c5f565b80156112c7576112b7817ff34984473148051bc1bdf1be6ecc462d7b228d591058a8a27977b84770b738b994600260209560ff1916178155611dcc565b6112c46040518092611bdd565ba2005b60405162461bcd60e51b815260206004820152600f60248201526e496e76616c6964206f7574636f6d6560881b6044820152606490fd5b60405162461bcd60e51b815260206004820152601760248201527f4f6e6c79206f7261636c652063616e207265736f6c76650000000000000000006044820152606490fd5b34610194575f366003190112610194576020600254604051908152f35b346101945760603660031901126101945760043567ffffffffffffffff8082116101945736602383011215610194578082600401351161019457366024836004013584010111610194576044356001600160a01b03811690036101945742602435111561173d576044356001600160a01b031615611707576003546113e481611dbe565b60035560405161143860748260208101948760040135602489018737876004013582019060243560208301526001600160601b031960443560601b1660408301526054820152036054810184520182611ace565b5190209060405161144881611ab1565b8281526114588460040135611d35565b6114656040519182611ace565b60048501358082526024860160208301375f6020866004013583010152602082015242604082015260243560608201525f60808201525f60a082015260018060a01b036044351660c08201525f60e08201525f6101008201525f610120820152825f52600460205260405f209181518355602082015180519182116104475781906114f36001860154611a79565b601f81116116b7575b50602090601f831160011461164c575f92611641575b50508160011b915f199060031b1c19161760018301555b60408101516002830155606081015160038301556004820193608082015160048110156105fb5760ff8019875416911617855560a08201519260038410156105fb5760076101207f6f32195b7d0d8b110adfb4d94d26620ec7319053a80302562d6dbbd62805ba9f94886115a0899860209b611dcc565b60c0820151815462010000600160b01b03191660109190911b62010000600160b01b031617905560e081015160058501556101008101516006850155015191015560405160608082526004830135908201819052909160809183919060248201838501375f600490910135828101840191909152602435888301526044356001600160a01b03166040830152601f01601f19168101030190a2604051908152f35b015190508680611512565b600186015f908152602081209350601f198516905b81811061169f5750908460019594939210611687575b505050811b016001830155611529565b01515f1960f88460031b161c19169055868080611677565b92936020600181928786015181550195019301611661565b909150600185015f5260205f20601f840160051c810160208510611700575b90849392915b601f830160051c820181106116f25750506114fc565b5f81558594506001016116dc565b50806116d6565b60405162461bcd60e51b815260206004820152600e60248201526d496e76616c6964206f7261636c6560901b6044820152606490fd5b60405162461bcd60e51b815260206004820152601c60248201527f457870697279206d75737420626520696e2074686520667574757265000000006044820152606490fd5b346101945760403660031901126101945761179b611a4d565b6004355f52600560205260405f209060018060a01b03165f52602052602060405f2054604051908152f35b34610194575f366003190112610194576020600154604051908152f35b3461019457602080600319360112610194576004355f526009815260405f20604051908183825491828152019081925f52845f20905f5b8682821061186f57868661183082880383611ace565b60405192839281840190828552518091526040840192915f5b82811061185857505050500390f35b835185528695509381019392810192600101611849565b83548552909301926001928301920161181a565b34610194576020366003190112610194576107b65f806118a1611a63565b6118b560018060a01b038354163314611cfd565b600280549083905560405163a9059cbb60e01b602082019081526001600160a01b03909316602482015260448101919091526107828160648101610774565b346101945760a036600319011261019457600435611910611a4d565b9060443591821515928381036101945760643591608435845f5260209360048552611943600260405f2001541515611c1b565b855f526004855260405f209460ff60048701541660048110156105fb577f0e796a03bae1100e2202fb705a842d38ad33db974ecd6ef87896b67234111ae39660609661199160079315611c5f565b6119a060038301544210611c9f565b15611a0b575f8981526005845260408082206001600160a01b03891683528552902080546119cf908690611cdc565b9055600581016119e0858254611cdc565b90555b016119ef848254611cdc565b9055604051978852870152604086015260018060a01b031693a3005b5f8981526006845260408082206001600160a01b0389168352855290208054611a35908690611cdc565b905560068101611a46858254611cdc565b90556119e3565b602435906001600160a01b038216820361019457565b600435906001600160a01b038216820361019457565b90600182811c92168015611aa7575b6020831014611a9357565b634e487b7160e01b5f52602260045260245ffd5b91607f1691611a88565b610140810190811067ffffffffffffffff82111761044757604052565b90601f8019910116810190811067ffffffffffffffff82111761044757604052565b9060405191825f8254611b0281611a79565b908184526020946001916001811690815f14611b705750600114611b32575b505050611b3092500383611ace565b565b5f90815285812095935091905b818310611b58575050611b3093508201015f8080611b21565b85548884018501529485019487945091830191611b3f565b92505050611b3094925060ff191682840152151560051b8201015f8080611b21565b91908251928382525f5b848110611bbc575050825f602080949584010152601f8019910116010190565b602081830181015184830182015201611b9c565b9060048210156105fb5752565b9060038210156105fb5752565b9181601f840112156101945782359167ffffffffffffffff8311610194576020808501948460051b01011161019457565b15611c2257565b60405162461bcd60e51b815260206004820152601560248201527413585c9ad95d08191bd95cc81b9bdd08195e1a5cdd605a1b6044820152606490fd5b15611c6657565b60405162461bcd60e51b81526020600482015260116024820152704d61726b6574206e6f742061637469766560781b6044820152606490fd5b15611ca657565b60405162461bcd60e51b815260206004820152600e60248201526d13585c9ad95d08195e1c1a5c995960921b6044820152606490fd5b91908201809211611ce957565b634e487b7160e01b5f52601160045260245ffd5b15611d0457565b60405162461bcd60e51b81526020600482015260096024820152682737ba1037bbb732b960b91b6044820152606490fd5b67ffffffffffffffff811161044757601f01601f191660200190565b3d15611d7b573d90611d6282611d35565b91611d706040519384611ace565b82523d5f602084013e565b606090565b15611d8757565b60405162461bcd60e51b815260206004820152600f60248201526e151c985b9cd9995c8819985a5b1959608a1b6044820152606490fd5b5f198114611ce95760010190565b9060038110156105fb5761ff0082549160081b169061ff001916179055565b8054821015611e00575f5260205f2001905f90565b634e487b7160e01b5f52603260045260245ffd5b15611e1b57565b60405162461bcd60e51b815260206004820152601360248201527213585c9ad95d081b9bdd081c995cdbdb1d9959606a1b6044820152606490fd5b91908203918211611ce957565b81810292918115918404141715611ce957565b15611e7d57565b60405162461bcd60e51b81526020600482015260116024820152704e6f2077696e6e696e672073686172657360781b6044820152606490fd5b9190811015611e005760051b019056fea2646970667358221220ad92f9a263863f9a959eb31897d99ce1da0bb276fa3e80c6579a5c52e1b3d3c464736f6c63430008180033","linkReferences":{}},"methodIdentifiers":{"accumulatedFees()":"587f5ed7","cancelMarket(bytes32)":"bdb83289","collateralToken()":"b2016bd4","createMarket(string,uint256,address)":"576cf9d0","getMarket(bytes32)":"c3c95c7b","getParlayMarketIds(bytes32)":"954ff694","getParlayShareAmounts(bytes32)":"2eefd633","getShares(bytes32,address)":"5ebb58fb","markets(bytes32)":"7564912b","mintParlayShares(bytes32[],address,uint256[],uint256[])":"cca22d76","mintShares(bytes32,address,bool,uint256,uint256)":"0cb26549","noShares(bytes32,address)":"ceb83966","owner()":"8da5cb5b","parlayPositions(bytes32)":"996ef7c3","protocolFeeBps()":"35659fb8","redeemParlayShares(bytes32)":"62271ab3","redeemShares(bytes32)":"b50c15ef","refundShares(bytes32)":"c8e2d1d2","resolveMarket(bytes32,uint8)":"5e382837","setProtocolFee(uint256)":"787dce3d","transferOwnership(address)":"f2fde38b","withdrawFees(address)":"164e68de","yesShares(bytes32,address)":"49589fd6"},"id":17}