{"abi":[{"type":"constructor","inputs":[{"name":"_stablecoin","type":"address","internalType":"address"}],"stateMutability":"nonpayable"},{"type":"function","name":"claimYield","inputs":[],"outputs":[],"stateMutability":"nonpayable"},{"type":"function","name":"deposit","inputs":[{"name":"amount","type":"uint256","internalType":"uint256"}],"outputs":[],"stateMutability":"nonpayable"},{"type":"function","name":"deposits","inputs":[{"name":"","type":"address","internalType":"address"}],"outputs":[{"name":"","type":"uint256","internalType":"uint256"}],"stateMutability":"view"},{"type":"function","name":"distributeYield","inputs":[{"name":"amount","type":"uint256","internalType":"uint256"}],"outputs":[],"stateMutability":"nonpayable"},{"type":"function","name":"earned","inputs":[{"name":"user","type":"address","internalType":"address"}],"outputs":[{"name":"","type":"uint256","internalType":"uint256"}],"stateMutability":"view"},{"type":"function","name":"getDeposit","inputs":[{"name":"user","type":"address","internalType":"address"}],"outputs":[{"name":"","type":"uint256","internalType":"uint256"}],"stateMutability":"view"},{"type":"function","name":"lastYieldUpdate","inputs":[],"outputs":[{"name":"","type":"uint256","internalType":"uint256"}],"stateMutability":"view"},{"type":"function","name":"owner","inputs":[],"outputs":[{"name":"","type":"address","internalType":"address"}],"stateMutability":"view"},{"type":"function","name":"pendingYield","inputs":[{"name":"","type":"address","internalType":"address"}],"outputs":[{"name":"","type":"uint256","internalType":"uint256"}],"stateMutability":"view"},{"type":"function","name":"stablecoin","inputs":[],"outputs":[{"name":"","type":"address","internalType":"address"}],"stateMutability":"view"},{"type":"function","name":"totalDeposited","inputs":[],"outputs":[{"name":"","type":"uint256","internalType":"uint256"}],"stateMutability":"view"},{"type":"function","name":"transferOwnership","inputs":[{"name":"newOwner","type":"address","internalType":"address"}],"outputs":[],"stateMutability":"nonpayable"},{"type":"function","name":"userYieldPerSharePaid","inputs":[{"name":"","type":"address","internalType":"address"}],"outputs":[{"name":"","type":"uint256","internalType":"uint256"}],"stateMutability":"view"},{"type":"function","name":"withdraw","inputs":[{"name":"amount","type":"uint256","internalType":"uint256"}],"outputs":[],"stateMutability":"nonpayable"},{"type":"function","name":"yieldPerShareStored","inputs":[],"outputs":[{"name":"","type":"uint256","internalType":"uint256"}],"stateMutability":"view"},{"type":"event","name":"Deposited","inputs":[{"name":"user","type":"address","indexed":true,"internalType":"address"},{"name":"amount","type":"uint256","indexed":false,"internalType":"uint256"}],"anonymous":false},{"type":"event","name":"Withdrawn","inputs":[{"name":"user","type":"address","indexed":true,"internalType":"address"},{"name":"amount","type":"uint256","indexed":false,"internalType":"uint256"}],"anonymous":false},{"type":"event","name":"YieldClaimed","inputs":[{"name":"user","type":"address","indexed":true,"internalType":"address"},{"name":"amount","type":"uint256","indexed":false,"internalType":"uint256"}],"anonymous":false},{"type":"event","name":"YieldDistributed","inputs":[{"name":"amount","type":"uint256","indexed":false,"internalType":"uint256"}],"anonymous":false}],"bytecode":{"object":"0x60a03461008657601f6109c038819003918201601f19168301916001600160401b0383118484101761008a5780849260209460405283398101031261008657516001600160a01b0381168103610086576080525f80546001600160a01b0319163317905542600355604051610921908161009f82396080518181816101b2015261025a0152f35b5f80fd5b634e487b7160e01b5f52604160045260245ffdfe604060808152600480361015610013575f80fd5b5f3560e01c9081628cc262146106fb5781632e1a7d4d146105e6578163406cf229146104ee5781638da5cb5b146104c75781638f8c8aee146104a95781639c2e2bf11461048b5781639d7d109914610450578163b6b55f251461037e578163c7bf198014610343578163c8cc5cd8146101e1578163e1254fba146100e2578163e9cbd8221461019e578163f2fde38b1461011b578163fc7e286d146100e2575063ff50abdc146100c1575f80fd5b346100de575f3660031901126100de576020906001549051908152f35b5f80fd5b82346100de5760203660031901126100de5781356001600160a01b03811692908390036100de576020925f528252805f20549051908152f35b82346100de5760203660031901126100de576001600160a01b038235818116939192908490036100de576101545f5493841633146108b3565b831561016b5750506001600160a01b031916175f55005b906020606492519162461bcd60e51b8352820152600d60248201526c24b73b30b634b21037bbb732b960991b6044820152fd5b82346100de575f3660031901126100de57517f00000000000000000000000000000000000000000000000000000000000000006001600160a01b03168152602090f35b82346100de5760203660031901126100de5781359161020a60018060a01b035f541633146108b3565b600154156103135781516323b872dd60e01b6020820190815233602483015230604483015260648201859052610289915f91829161025581608481015b03601f198101835282610800565b5190827f00000000000000000000000000000000000000000000000000000000000000005af1610283610836565b50610875565b670de0b6b3a7640000808402908482041484151715610300576001549182156102ed577fe8ed0a697f15301f06fd3d30bc896682e7826c5397076a3eda05844cfc356480602086866102df878704600254610753565b6002554260035551908152a1005b601290634e487b7160e01b5f525260245ffd5b601182634e487b7160e01b5f525260245ffd5b6020606492519162461bcd60e51b8352820152600b60248201526a4e6f206465706f7369747360a81b6044820152fd5b9050346100de5760203660031901126100de57356001600160a01b03811691908290036100de576020915f5260068252805f20549051908152f35b82346100de576020806003193601126100de577f2da466a7b24304f47e87fa2e1e5a81b9831ce54fec19055ce277ca2f39ba42c4918335933361042c575b6103c78515156107bf565b81516323b872dd60e01b848201908152336024830152306044830152606482018790526103ff915f9182916102558160848101610247565b335f528252805f20610412858254610753565b905561042084600154610753565b600155519283523392a2005b61043533610760565b335f5260068452825f205560025460058452825f20556103bc565b9050346100de5760203660031901126100de57356001600160a01b03811691908290036100de576020915f5260058252805f20549051908152f35b82346100de575f3660031901126100de576020906002549051908152f35b82346100de575f3660031901126100de576020906003549051908152f35b82346100de575f3660031901126100de575f5490516001600160a01b039091168152602090f35b82346100de575f3660031901126100de57336105c0575b335f526006602052805f205491821561058a5750335f81815260066020908152838220829055835163a9059cbb60e01b91810191825260248101939093526044830185905261055e928291906102558160648101610247565b519081527fc04825ba3f383b602255d2a13065a68e325c65c9e0ed5d031ea2b06f641873af60203392a2005b6020606492519162461bcd60e51b835282015260116024820152704e6f207969656c6420746f20636c61696d60781b6044820152fd5b6105c933610760565b335f526006602052815f20556002546005602052815f2055610505565b82346100de576020806003193601126100de57823591336106d7575b61060d8315156107bf565b335f5283825282815f20541061069f577f7084f5476618d8e60b11ef0d7d3f06914655adb8793e28ff7f018d4c76d505d59293335f528252805f20610653858254610732565b905561066184600154610732565b600155805163a9059cbb60e01b83820190815233602483015260448201869052610696915f9182916102558160648101610247565b519283523392a2005b5162461bcd60e51b815292830152506014602482015273496e73756666696369656e742062616c616e636560601b6044820152606490fd5b6106e033610760565b335f5260068352815f205560025460058352815f2055610602565b9050346100de5760203660031901126100de5735906001600160a01b03821682036100de5761072b602092610760565b9051908152f35b9190820391821161073f57565b634e487b7160e01b5f52601160045260245ffd5b9190820180921161073f57565b60018060a01b0316805f52600460205260405f205461078b600254600560205260405f205490610732565b9081810291818304149015171561073f576107bc915f526006602052670de0b6b3a764000060405f20549104610753565b90565b156107c657565b60405162461bcd60e51b81526020600482015260126024820152710416d6f756e74206d757374206265203e20360741b6044820152606490fd5b90601f8019910116810190811067ffffffffffffffff82111761082257604052565b634e487b7160e01b5f52604160045260245ffd5b3d15610870573d9067ffffffffffffffff82116108225760405191610865601f8201601f191660200184610800565b82523d5f602084013e565b606090565b1561087c57565b60405162461bcd60e51b815260206004820152600f60248201526e151c985b9cd9995c8819985a5b1959608a1b6044820152606490fd5b156108ba57565b60405162461bcd60e51b81526020600482015260096024820152682737ba1037bbb732b960b91b6044820152606490fdfea2646970667358221220924e8d6556ea64767e22c9588a505bb4f225f4db7a8c1c11307f1489c71f339164736f6c63430008180033","linkReferences":{}},"methodIdentifiers":{"claimYield()":"406cf229","deposit(uint256)":"b6b55f25","deposits(address)":"fc7e286d","distributeYield(uint256)":"c8cc5cd8","earned(address)":"008cc262","getDeposit(address)":"e1254fba","lastYieldUpdate()":"8f8c8aee","owner()":"8da5cb5b","pendingYield(address)":"c7bf1980","stablecoin()":"e9cbd822","totalDeposited()":"ff50abdc","transferOwnership(address)":"f2fde38b","userYieldPerSharePaid(address)":"9d7d1099","withdraw(uint256)":"2e1a7d4d","yieldPerShareStored()":"9c2e2bf1"},"id":20}