{"abi":[{"type":"constructor","inputs":[{"name":"_predictionMarket","type":"address","internalType":"address"},{"name":"_collateralToken","type":"address","internalType":"address"}],"stateMutability":"nonpayable"},{"type":"function","name":"cancelQuote","inputs":[{"name":"requestId","type":"bytes32","internalType":"bytes32"}],"outputs":[],"stateMutability":"nonpayable"},{"type":"function","name":"collateralToken","inputs":[],"outputs":[{"name":"","type":"address","internalType":"address"}],"stateMutability":"view"},{"type":"function","name":"fillQuote","inputs":[{"name":"responseId","type":"bytes32","internalType":"bytes32"}],"outputs":[],"stateMutability":"nonpayable"},{"type":"function","name":"getGlobalStats","inputs":[],"outputs":[{"name":"_totalRFQCount","type":"uint256","internalType":"uint256"},{"name":"_totalFilledCount","type":"uint256","internalType":"uint256"},{"name":"_totalVolume","type":"uint256","internalType":"uint256"},{"name":"_lastRFQTimestamp","type":"uint256","internalType":"uint256"},{"name":"quoteToFillRatio","type":"uint256","internalType":"uint256"}],"stateMutability":"view"},{"type":"function","name":"getMakerStats","inputs":[{"name":"maker","type":"address","internalType":"address"}],"outputs":[{"name":"responseCount","type":"uint256","internalType":"uint256"},{"name":"fillCount","type":"uint256","internalType":"uint256"},{"name":"avgResponseTime","type":"uint256","internalType":"uint256"},{"name":"acceptanceRate","type":"uint256","internalType":"uint256"}],"stateMutability":"view"},{"type":"function","name":"getRequest","inputs":[{"name":"requestId","type":"bytes32","internalType":"bytes32"}],"outputs":[{"name":"","type":"tuple","internalType":"struct IRFQ.QuoteRequest","components":[{"name":"requestId","type":"bytes32","internalType":"bytes32"},{"name":"taker","type":"address","internalType":"address"},{"name":"marketId","type":"bytes32","internalType":"bytes32"},{"name":"isYes","type":"bool","internalType":"bool"},{"name":"size","type":"uint256","internalType":"uint256"},{"name":"maxPrice","type":"uint256","internalType":"uint256"},{"name":"createdAt","type":"uint256","internalType":"uint256"},{"name":"expiresAt","type":"uint256","internalType":"uint256"},{"name":"status","type":"uint8","internalType":"enum IRFQ.RFQStatus"}]}],"stateMutability":"view"},{"type":"function","name":"getRequestResponses","inputs":[{"name":"requestId","type":"bytes32","internalType":"bytes32"}],"outputs":[{"name":"","type":"bytes32[]","internalType":"bytes32[]"}],"stateMutability":"view"},{"type":"function","name":"getResponse","inputs":[{"name":"responseId","type":"bytes32","internalType":"bytes32"}],"outputs":[{"name":"","type":"tuple","internalType":"struct IRFQ.QuoteResponse","components":[{"name":"responseId","type":"bytes32","internalType":"bytes32"},{"name":"requestId","type":"bytes32","internalType":"bytes32"},{"name":"maker","type":"address","internalType":"address"},{"name":"price","type":"uint256","internalType":"uint256"},{"name":"size","type":"uint256","internalType":"uint256"},{"name":"createdAt","type":"uint256","internalType":"uint256"},{"name":"expiresAt","type":"uint256","internalType":"uint256"},{"name":"filled","type":"bool","internalType":"bool"}]}],"stateMutability":"view"},{"type":"function","name":"lastRFQTimestamp","inputs":[],"outputs":[{"name":"","type":"uint256","internalType":"uint256"}],"stateMutability":"view"},{"type":"function","name":"makerFillCount","inputs":[{"name":"","type":"address","internalType":"address"}],"outputs":[{"name":"","type":"uint256","internalType":"uint256"}],"stateMutability":"view"},{"type":"function","name":"makerLastResponseTime","inputs":[{"name":"","type":"address","internalType":"address"}],"outputs":[{"name":"","type":"uint256","internalType":"uint256"}],"stateMutability":"view"},{"type":"function","name":"makerResponseCount","inputs":[{"name":"","type":"address","internalType":"address"}],"outputs":[{"name":"","type":"uint256","internalType":"uint256"}],"stateMutability":"view"},{"type":"function","name":"makerTotalResponseTime","inputs":[{"name":"","type":"address","internalType":"address"}],"outputs":[{"name":"","type":"uint256","internalType":"uint256"}],"stateMutability":"view"},{"type":"function","name":"predictionMarket","inputs":[],"outputs":[{"name":"","type":"address","internalType":"contract PredictionMarket"}],"stateMutability":"view"},{"type":"function","name":"requestQuote","inputs":[{"name":"marketId","type":"bytes32","internalType":"bytes32"},{"name":"isYes","type":"bool","internalType":"bool"},{"name":"size","type":"uint256","internalType":"uint256"},{"name":"maxPrice","type":"uint256","internalType":"uint256"},{"name":"duration","type":"uint256","internalType":"uint256"}],"outputs":[{"name":"","type":"bytes32","internalType":"bytes32"}],"stateMutability":"nonpayable"},{"type":"function","name":"requestResponses","inputs":[{"name":"","type":"bytes32","internalType":"bytes32"},{"name":"","type":"uint256","internalType":"uint256"}],"outputs":[{"name":"","type":"bytes32","internalType":"bytes32"}],"stateMutability":"view"},{"type":"function","name":"requests","inputs":[{"name":"","type":"bytes32","internalType":"bytes32"}],"outputs":[{"name":"requestId","type":"bytes32","internalType":"bytes32"},{"name":"taker","type":"address","internalType":"address"},{"name":"marketId","type":"bytes32","internalType":"bytes32"},{"name":"isYes","type":"bool","internalType":"bool"},{"name":"size","type":"uint256","internalType":"uint256"},{"name":"maxPrice","type":"uint256","internalType":"uint256"},{"name":"createdAt","type":"uint256","internalType":"uint256"},{"name":"expiresAt","type":"uint256","internalType":"uint256"},{"name":"status","type":"uint8","internalType":"enum IRFQ.RFQStatus"}],"stateMutability":"view"},{"type":"function","name":"respondToQuote","inputs":[{"name":"requestId","type":"bytes32","internalType":"bytes32"},{"name":"price","type":"uint256","internalType":"uint256"},{"name":"size","type":"uint256","internalType":"uint256"},{"name":"duration","type":"uint256","internalType":"uint256"}],"outputs":[{"name":"","type":"bytes32","internalType":"bytes32"}],"stateMutability":"nonpayable"},{"type":"function","name":"responses","inputs":[{"name":"","type":"bytes32","internalType":"bytes32"}],"outputs":[{"name":"responseId","type":"bytes32","internalType":"bytes32"},{"name":"requestId","type":"bytes32","internalType":"bytes32"},{"name":"maker","type":"address","internalType":"address"},{"name":"price","type":"uint256","internalType":"uint256"},{"name":"size","type":"uint256","internalType":"uint256"},{"name":"createdAt","type":"uint256","internalType":"uint256"},{"name":"expiresAt","type":"uint256","internalType":"uint256"},{"name":"filled","type":"bool","internalType":"bool"}],"stateMutability":"view"},{"type":"function","name":"totalFilledCount","inputs":[],"outputs":[{"name":"","type":"uint256","internalType":"uint256"}],"stateMutability":"view"},{"type":"function","name":"totalRFQCount","inputs":[],"outputs":[{"name":"","type":"uint256","internalType":"uint256"}],"stateMutability":"view"},{"type":"function","name":"totalVolume","inputs":[],"outputs":[{"name":"","type":"uint256","internalType":"uint256"}],"stateMutability":"view"},{"type":"event","name":"QuoteCancelled","inputs":[{"name":"requestId","type":"bytes32","indexed":true,"internalType":"bytes32"}],"anonymous":false},{"type":"event","name":"QuoteExpired","inputs":[{"name":"requestId","type":"bytes32","indexed":true,"internalType":"bytes32"}],"anonymous":false},{"type":"event","name":"QuoteFilled","inputs":[{"name":"responseId","type":"bytes32","indexed":true,"internalType":"bytes32"},{"name":"requestId","type":"bytes32","indexed":true,"internalType":"bytes32"},{"name":"taker","type":"address","indexed":false,"internalType":"address"},{"name":"maker","type":"address","indexed":false,"internalType":"address"},{"name":"price","type":"uint256","indexed":false,"internalType":"uint256"},{"name":"size","type":"uint256","indexed":false,"internalType":"uint256"}],"anonymous":false},{"type":"event","name":"QuoteRequested","inputs":[{"name":"requestId","type":"bytes32","indexed":true,"internalType":"bytes32"},{"name":"taker","type":"address","indexed":true,"internalType":"address"},{"name":"marketId","type":"bytes32","indexed":true,"internalType":"bytes32"},{"name":"isYes","type":"bool","indexed":false,"internalType":"bool"},{"name":"size","type":"uint256","indexed":false,"internalType":"uint256"}],"anonymous":false},{"type":"event","name":"QuoteResponded","inputs":[{"name":"responseId","type":"bytes32","indexed":true,"internalType":"bytes32"},{"name":"requestId","type":"bytes32","indexed":true,"internalType":"bytes32"},{"name":"maker","type":"address","indexed":true,"internalType":"address"},{"name":"price","type":"uint256","indexed":false,"internalType":"uint256"},{"name":"size","type":"uint256","indexed":false,"internalType":"uint256"}],"anonymous":false}],"bytecode":{"object":"0x60c03461009257601f61180738819003918201601f19168301916001600160401b0383118484101761009657808492604094855283398101031261009257610052602061004b836100aa565b92016100aa565b6001600160a01b0390911660805260a05260405161174890816100bf823960805181818161039e0152610d50015260a0518181816107d00152610d950152f35b5f80fd5b634e487b7160e01b5f52604160045260245ffd5b51906001600160a01b03821682036100925756fe60806040818152600480361015610014575f80fd5b5f9260e05f35811c9182630804bbec146114f5575081630b20082a146114b15781632b7609761461122b5781633808173b14610c77578163415a2bc114610b7757816343b9757a14610b3d5781635f81a57c14610b1d5781636b4169c314610a9857816372164a6c14610a1757816381bb5bc2146109585781639d866985146108c1578163aa5599e8146108a1578163b1583e2f146107ff578163b2016bd4146107ba578163c73f69d914610780578163c9b8bf2814610760578163d0dcf1d1146103d1578163def114b614610388578163f1826ba31461036a578163f4e96ddf14610297578163fb1e61ca14610150575063fd0abf2e14610114575f80fd5b3461014c57602036600319011261014c57356001600160a01b0381169081900361014c5782829160209452600a845220549051908152f35b8280fd5b9050346102935760203660031901126102935782805194610170866115d8565b80865280602087015280828701528060608701528060808701528060a08701528060c087015280838701528061010080970152833581526001602052209280519384916101bc836115d8565b8154835260018060a01b0380600184015416916020850192835260028401549080860191825260ff6003860154169160608701921515835288860154936080880194855260058701549560a0890196875260ff600860068a01549960c08c019a8b528c60078201549c019b8c520154168d8d019b8082101561028057508b5283519b518c52511660208b0152519089015251151560608801525160808701525160a08601525160c08501525190830152516101209261027e9190830190611556565bf35b602190634e487b7160e01b5f525260245ffd5b8380fd5b50503461014c57602036600319011261014c5780359182845260016020528084209060018060a01b03600183015416330361033057506008019081549060ff8216908082101561031d5750906102ef60039215611669565b60ff19161790557fbeec4cc4fbfe1f2c6ec40275cf33a2d7c90d1b18402339c75e26977f4b7ad6368280a280f35b634e487b7160e01b865260219052602485fd5b5162461bcd60e51b8152602081840152601560248201527413db9b1e481d185ad95c8818d85b8818d85b98d95b605a1b6044820152606490fd5b50503461014c578260031936011261014c5760209250549051908152f35b505050346103cd57816003193601126103cd57517f00000000000000000000000000000000000000000000000000000000000000006001600160a01b03168152602090f35b5080fd5b828585346103cd5760803660031901126103cd57823560249485359360443591838252602096600188528583209160068301928354156107255760ff60088201541683811015610713576104259015611669565b60078101544210156106df57881515806106d1575b1561069b5782861515918261068d575b50501561065c5761045e6064351515611577565b8354610469816115b6565b855587518a8101913360601b83528860348301528a605483015287607483015242609483015260b482015260b4815282810181811067ffffffffffffffff82111761064a5789525190209899969796908a9085908a90888b8e8c6104cf6064354261165c565b958051986104dc8a61161d565b838a52808a01928352818a019333855260608b0195865260808b0196875260a08b019742895260c08c01998a528b0199808b5252600290528c20975188555160018801556002870190600160a01b600190039051166bffffffffffffffffffffffff60a01b8254161790555160038601555186850155516005840155516006830155511515906007019061057b919060ff801983541691151516179055565b85845260038a528784209081549268010000000000000000841015610639575050816105b09160016105cb959401815561152d565b81549060031b908a821b915f19901b19161790555442611705565b338252600888528582206105df81546115b6565b9055338252600a88526105f686832091825461165c565b9055338152600b87528442912055835192835285830152837f095d249401155a28b93616ea751aa5fc6fec87d4536f3e38e5982bcd04b9bdc8843394a451908152f35b634e487b7160e01b86526041905284fd5b8c604186634e487b7160e01b5f52525ffd5b865162461bcd60e51b81528083018a9052600c818c01526b496e76616c69642073697a6560a01b6044820152606490fd5b01548611159050828c61044a565b875162461bcd60e51b81528084018b90526011818d0152700a0e4d2c6ca40caf0c6cacac8e640dac2f607b1b6044820152606490fd5b50600581015489111561043a565b875162461bcd60e51b81528084018b9052600f818d01526e14995c5d595cdd08195e1c1a5c9959608a1b6044820152606490fd5b634e487b7160e01b8652602184528b86fd5b875162461bcd60e51b81528084018b90526016818d01527514995c5d595cdd08191bd95cc81b9bdd08195e1a5cdd60521b6044820152606490fd5b505050346103cd57816003193601126103cd576020906005549051908152f35b50503461014c57602036600319011261014c57356001600160a01b0381169081900361014c57828291602094526008845220549051908152f35b505050346103cd57816003193601126103cd57517f00000000000000000000000000000000000000000000000000000000000000006001600160a01b03168152602090f35b5050823461089e57602091826003193601126103cd5792919235815260038352818120908251808584549182815201908194845286842090845b81811061088a575050508161084f91038261163a565b83519485948186019282875251809352850193925b82811061087357505050500390f35b835185528695509381019392810192600101610864565b825484529288019260019283019201610839565b80fd5b505050346103cd57816003193601126103cd576020906007549051908152f35b905034610293576020366003190112610293579061027e918361012095833581526001602052209081549460018060a01b036001840154169360028401549060ff600386015416908501549060058601549260068701549460ff600860078a0154990154169881519b8c5260208c01528a015215156060890152608088015260a087015260c0860152840152610100830190611556565b828585346103cd5760203660031901126103cd5782356001600160a01b0381169081900361014c578252600860205280822054916009602052818120549183151591825f14610a1057600a6020526109b385838320546116a8565b925b15610a0657612710908185029185830414851517156109f3575060809550846109dd916116a8565b925b815194855260208501528301526060820152f35b634e487b7160e01b815260118752602490fd5b60809550926109df565b80926109b5565b919050346102935760203660031901126102935782610100948235815260026020522080549360018201549260018060a01b03600284015416906003840154908401549160058501549360ff6007600688015497015416968151998a5260208a01528801526060870152608086015260a085015260c0840152151590820152f35b828585346103cd57816003193601126103cd5782546005546006546007549294919390918515610b135761271090818602918683041486151715610b00575060a0965085610ae5916116a8565b935b8151958652602086015284015260608301526080820152f35b634e487b7160e01b815260118852602490fd5b60a0965093610ae7565b505050346103cd57816003193601126103cd576020906006549051908152f35b50503461014c57602036600319011261014c57356001600160a01b0381169081900361014c5782829160209452600b845220549051908152f35b9190503461029357602036600319011261029357828461010095848351610b9d8161161d565b82815282602082015282858201528260608201528260808201528260a08201528260c0820152015282358152600260205220835191610bdb8361161d565b8154948584526001830154916020850192835260018060a01b0391826002860154169281870193845260038601549260608801938452860154936080880194855260058701549560a089019687528960ff600760068b01549a60c08d019b8c520154169901981515895283519a8b525160208b01525116908801525160608701525160808601525160a08501525160c084015251151590820152f35b82858534611047576020806003193601126110475783355f5260028152815f20936005850154156111ea57600785019182549360ff85166111b857600687015442101561118457600187019081545f5260018352805f20916008830160ff8154168681101561117157610cea9015611669565b60018401805490986001600160a01b039890918916330361113857906001918260ff198093161790558254161790556003890190815493868b0194855490818102918183041490151715611125578451630aed65f560e11b8882019081523360248301527f00000000000000000000000000000000000000000000000000000000000000008b166001600160a01b0381166044840152670de0b6b3a7640000909304606483018190527f00000000000000000000000000000000000000000000000000000000000000009e9094909290918f905f90819084608481010394610dda601f199687810183528261163a565b519082855af190610de96116c6565b5081156110cd575b501561108c578b9c9d9e858a5490610e0891611705565b936002019d8e541691895190818d8101946323b872dd60e01b865287896024840192610e509360409194939294606082019560018060a01b0380921683521660208201520152565b039081018252610e60908261163a565b515a925f8094938194f1610e726116c6565b501561104b57908160028e9493019060038d835496541691019560ff875416918b5496863b1561104757610ee78f98935f948e519687958695630cb2654960e01b9d8e885287019192608093969594919660a0840197845260018060a01b031660208401521515604083015260608201520152565b038183885af1801561103d5761101e575b50918c918f9594938d60ff915494541695541615938a5490833b1561101a578a51908152808e019485526001600160a01b0390961660208501529315156040840152606083019390935260808201929092528391839182908490829060a00103925af1801561101057610fec575b505090867f77d5ecc2a592e316ad7e54b8371800d81d02404493df25b0da22c8bb3cae04da9760809796959493610f9e6005546115b6565b600555610fae865460065461165c565b600655818b54168d5260098752848d20610fc881546115b6565b9055549a54169854169054925493825198895288015286015260608501523592a380f35b610ffc9097969594939297611609565b61100c579091929394898b610f66565b8980fd5b85513d84823e3d90fd5b8780fd5b8c959493919f50916110308e93611609565b5f9f919394955091610ef8565b89513d5f823e3d90fd5b5f80fd5b60648a8a808a519262461bcd60e51b845283015260248201527f4d616b657220636f6c6c61746572616c207472616e73666572206661696c65646044820152fd5b60648b8b808b519262461bcd60e51b845283015260248201527f54616b657220636f6c6c61746572616c207472616e73666572206661696c65646044820152fd5b89516323b872dd60e01b8d82019081523360248301526001600160a01b038816604483015260648201899052608485810183525f94508493928491611112908261163a565b51925af161111e6116c6565b508f610df1565b601188634e487b7160e01b5f525260245ffd5b845162461bcd60e51b8152808901889052601360248201527213db9b1e481d185ad95c8818d85b88199a5b1b606a1b6044820152606490fd5b602187634e487b7160e01b5f525260245ffd5b5162461bcd60e51b815291820152601060248201526f14995cdc1bdb9cd948195e1c1a5c995960821b604482015260649150fd5b5162461bcd60e51b815291820152600e60248201526d105b1c9958591e48199a5b1b195960921b604482015260649150fd5b915162461bcd60e51b815291820152601760248201527f526573706f6e736520646f6573206e6f742065786973740000000000000000006044820152606490fd5b905082346110475760a0366003190112611047578235602435801515809103611047576044356064359560843595821561147b5787151580611469575b156114325786151580611425575b61127f90611577565b5f5461128a816115b6565b5f55865160208101913360601b83528760348301528660f81b605483015285605583015242607583015260958201526095815260c0810181811067ffffffffffffffff821117611412578852519020966112e4904261165c565b8651916112f0836115d8565b8883526020830199338b5288840188815260608501888152608086019188835260a0870193845260c0870194428652870195865261010087019d5f8f528d5f5260016020528c5f20975188556001880190600160a01b600190039051166bffffffffffffffffffffffff60a01b8254161790555160028701555115156003860190611386919060ff801983541691151516179055565b5185850155516005840155516006830155516007820155600801965196818810156113ff5760209760ff801983541691161790556113c481546115b6565b905542600755835191825285820152837ffd24d7869c76c4f283984a172da7768af21ee2a546429d3280fe086b90e99cae843393a451908152f35b602182634e487b7160e01b5f525260245ffd5b604185634e487b7160e01b5f525260245ffd5b5062015180871115611276565b855162461bcd60e51b81526020818401526011602482015270496e76616c6964206d617820707269636560781b6044820152606490fd5b50670de0b6b3a7640000881115611268565b855162461bcd60e51b8152602081840152601060248201526f053697a65206d757374206265203e20360841b6044820152606490fd5b82843461104757806003193601126110475760243591355f526003602052805f208054831015611047576020926114e79161152d565b90549060031b1c9051908152f35b8490843461104757602036600319011261104757356001600160a01b0381169290839003611047576020925f52600983525f20548152f35b8054821015611542575f5260205f2001905f90565b634e487b7160e01b5f52603260045260245ffd5b9060048210156115635752565b634e487b7160e01b5f52602160045260245ffd5b1561157e57565b60405162461bcd60e51b815260206004820152601060248201526f24b73b30b634b210323ab930ba34b7b760811b6044820152606490fd5b5f1981146115c45760010190565b634e487b7160e01b5f52601160045260245ffd5b610120810190811067ffffffffffffffff8211176115f557604052565b634e487b7160e01b5f52604160045260245ffd5b67ffffffffffffffff81116115f557604052565b610100810190811067ffffffffffffffff8211176115f557604052565b90601f8019910116810190811067ffffffffffffffff8211176115f557604052565b919082018092116115c457565b1561167057565b60405162461bcd60e51b815260206004820152601060248201526f2932b8bab2b9ba103737ba1037b832b760811b6044820152606490fd5b81156116b2570490565b634e487b7160e01b5f52601260045260245ffd5b3d15611700573d9067ffffffffffffffff82116115f557604051916116f5601f8201601f19166020018461163a565b82523d5f602084013e565b606090565b919082039182116115c45756fea2646970667358221220b54ab32f9777096e38949d56e550754a4de53ad044690fd47aae2597b00c86b364736f6c63430008180033","linkReferences":{}},"methodIdentifiers":{"cancelQuote(bytes32)":"f4e96ddf","collateralToken()":"b2016bd4","fillQuote(bytes32)":"3808173b","getGlobalStats()":"6b4169c3","getMakerStats(address)":"81bb5bc2","getRequest(bytes32)":"fb1e61ca","getRequestResponses(bytes32)":"b1583e2f","getResponse(bytes32)":"415a2bc1","lastRFQTimestamp()":"aa5599e8","makerFillCount(address)":"0804bbec","makerLastResponseTime(address)":"43b9757a","makerResponseCount(address)":"c73f69d9","makerTotalResponseTime(address)":"fd0abf2e","predictionMarket()":"def114b6","requestQuote(bytes32,bool,uint256,uint256,uint256)":"2b760976","requestResponses(bytes32,uint256)":"0b20082a","requests(bytes32)":"9d866985","respondToQuote(bytes32,uint256,uint256,uint256)":"d0dcf1d1","responses(bytes32)":"72164a6c","totalFilledCount()":"c9b8bf28","totalRFQCount()":"f1826ba3","totalVolume()":"5f81a57c"},"id":18}